:100000000C9461040C9489040C9489040C94890464
:100010000C9489040C9489040C9489040C9489042C
:100020000C9489040C9489040C942B0B0C949A0B5B
:100030000C9489040C9489040C9489040C9489040C
:100040000C9489040C9489040C9489040C948904FC
:100050000C9489040C9489040C9489040C94CC0DA0
:100060000C9489040C9489040C9489040C948904DC
:100070000C9489040C9489040C9489040C948904CC
:100080000C9489040C9489040C9489040C948904BC
:100090000C9489040C9489040C9489040C948904AC
:1000A0000C9489040C9489040C94890404083E0976
:1000B000093E3F25251A1E2121123F21211E3F25E1
:1000C00025213F0505011E21293A3F04043F213F18
:1000D00021001021211F3F040A313F2020203F0230
:1000E000023F3F02043F1E21211E3F0909061E2137
:1000F000112E3F09093622252519013F01011F2034
:10010000201F0F10201F3F10103F3B04043B03042F
:100110003807312D2321102A2A3C3F2424181C2281
:1001200022141824243F1C2A2A2C047E05014C5238
:10013000523E3F040438243D20004040443D3F08E7
:100140001422213F20003E04043E3E04023C1C22B7
:10015000221C7E22221C1C22227E3E040204242A0F
:100160002A12021F22201E20201E0E10201E3E10CA
:10017000103E360808364E50503E322A26221E299E
:10018000251E223F2000322929261221251A0C0A79
:100190003F08172525191E252518013905031A259D
:1001A000251A0629291E002F00000020000008083B
:1001B000080800000000003E5B4F5B3E3E6B4F6B4B
:1001C0003E1C3E7C3E1C183C7E3C181C577D571C38
:1001D0001C5E7F5E1C00183C1800FFE7C3E7FF00B1
:1001E00018241800FFE7DBE7FF30483A060E2629FF
:1001F000792926407F050507407F05253F5A3CE7C2
:100200003C5A7F3E1C1C08081C1C3E7F14227F2287
:10021000145F5F005F5F06097F017F006689956A52
:10022000606060606094A2FFA29408047E040810DD
:10023000207E201008082A1C08081C2A08081E1006
:100240001010100C1E0C1E0C30383E3830060E3EBE
:100250000E06000000000000005F0000000700071D
:1002600000147F147F14242A7F2A12231308646247
:1002700036495620500008070300001C22410000A8
:1002800041221C002A1C7F1C2A08083E0808008006
:10029000703000080808080800006060002010089E
:1002A00004023E5149453E00427F4000724949499F
:1002B000462141494D331814127F102745454539D1
:1002C0003C4A4949314121110907364949493646D5
:1002D0004949291E000014000000403400000008B5
:1002E0001422411414141414004122140802015958
:1002F00009063E415D594E7C1211127C7F494949E5
:10030000363E414141227F4141413E7F4949494179
:100310007F090909013E414151737F0808087F00A8
:10032000417F41002040413F017F081422417F402E
:100330004040407F021C027F7F0408107F3E414105
:10034000413E7F090909063E4151215E7F09192975
:1003500046264949493203017F01033F4040403F5F
:100360001F2040201F3F4038403F631408146303A0
:10037000047804036159494D43007F41414102041F
:10038000081020004141417F040201020440404026
:100390004040000307080020545478407F2844441C
:1003A000383844444428384444287F385454541836
:1003B00000087E090218A4A49C787F080404780031
:1003C000447D40002040403D007F10284400004113
:1003D0007F40007C047804787C0804047838444426
:1003E0004438FC1824241818242418FC7C0804041D
:1003F00008485454542404043F44243C4040207C86
:100400001C2040201C3C4030403C44281028444CD8
:100410009090907C4464544C4400083641000000A5
:10042000770000004136080002010204023C262346
:10043000263C1EA1A161123A4040207A38545455FE
:1004400059215555794121545478412155547840CA
:1004500020545579400C1E52721239555555593950
:100460005454545939555454580000457C410002A5
:10047000457D420001457C40F0292429F0F02825E3
:1004800028F07C545545002054547C547C0A097F44
:100490004932494949323248484832324A4848305C
:1004A0003A4141217A3A42402078009DA0A07D390E
:1004B000444444393D4040403D3C24FF2424487E90
:1004C0004943662B2FFC2F2BFF0929F620C0887E7D
:1004D000090320545479410000447D413048484A82
:1004E00032384040227A007A0A0A727D0D19317D35
:1004F0002629292F28262929292630484D40203809
:100500000808080808080808382F10C8ACBA2F10C7
:100510002834FA00007B000008142A142222142A2E
:1005200014089500220095AA005500AAAA55AA55BC
:10053000AA000000FF00101010FF00141414FF00A8
:100540001010FF00FF1010F010F0141414FC001431
:1005500014F700FF0000FF00FF1414F404FC14144F
:1005600017101F10101F101F1414141F001010104C
:10057000F0000000001F101010101F10101010F0DD
:1005800010000000FF101010101010101010FF10BD
:10059000000000FF140000FF00FF00001F10170004
:1005A00000FC04F414141710171414F404F40000DD
:1005B000FF00F714141414141414F700F71414148F
:1005C000171410101F101F141414F4141010F0102E
:1005D000F000001F101F0000001F14000000FC149A
:1005E0000000F010F01010FF10FF141414FF14108E
:1005F00010101F00000000F010FFFFFFFFFFF0F0E1
:10060000F0F0F0FFFFFF0000000000FFFF0F0F0FF2
:100610000F0F38444438447C2A2A3E147E020206D6
:1006200006027E027E0263554941633844443C041D
:10063000407E201E2006027E020299A5E7A5991C95
:100640002A492A1C4C7201724C304A4D4D303048B8
:10065000784830BC625A463D3E494949007E010116
:10066000017E2A2A2A2A2A44445F444440514A44AB
:100670004040444A51400000FF0103E080FF000079
:1006800008086B6B083612362436060F090F060071
:100690000018180000001010003040FF0101001F7A
:1006A00001011E00191D1712003C3C3C3C000000DB
:1006B0000000F0F89C8E8783878E9CF8F00000FE87
:1006C000FF0303030303070EFCF80000FEFF030310
:1006D000030303070EFCF80000FFFF00000000000A
:1006E0000000FFFF0000FEFF8383838383C7EE7C4F
:1006F000380000F8FC0E07030303070EFCF80000A7
:100700003F7FE0C08080C0E07F3FFFFF010101012B
:10071000010101FFFF0000FFFF0C0C0C0C1C3E77D9
:10072000E3C100007FFFC0C0C0C0C0E0703F1F0039
:10073000001F3F70E0C0C0C0E0703F1F00007FFF9F
:10074000C1C1C1C1C1E3773E1C00001F3F70E0C0C2
:10075000C0C0E0703F1F000000000001FFFF01006B
:100760000000D5F08D14A1C881CFD9F1AF20004D84
:100770006178205061727469636C652059466F72AC
:10078000636520004D696E205061727469636C6509
:100790002059466F72636520004D61782050617268
:1007A0007469636C652058466F72636520004D69FB
:1007B0006E205061727469636C652058466F726375
:1007C0006520004D6178205061727469636C65200A
:1007D0004C69666574696D6520004D696E205061D5
:1007E000727469636C65204C69666574696D652017
:1007F000004D6178205061727469636C65205369A3
:100800007A6520004D696E205061727469636C6571
:100810002053697A6520005061727469636C6520A9
:10082000416D6F756E74200046696C6C6564205074
:1008300061727469636C65732000526F756E642019
:100840005061727469636C657320004772617669E8
:1008500074792000080B0002020200000904000065
:100860000102020000052400100105240101010419
:100870002402060524060001070581031000400933
:10088000040100020A000000070502024000000700
:100890000583024000000403090412010002EF0274
:1008A0000140412336800001010203014172647559
:1008B000696E6F204C4C430041726475626F790021
:1008C000490E11241FBECFEFDAE0DEBFCDBF11E02D
:1008D000A0E0B1E0E6E9F4E302C005900D92A43691
:1008E000B107D9F72AE0A4E6B1E001C01D92A53313
:1008F000B207E1F714E0C1E6D4E004C02197FE019D
:100900000E94431AC036D107C9F70E94760E0C9494
:10091000491A0C940000480F592F511D1416150642
:1009200084F5803891056CF597FF02C090E080E077
:100930004138510514F040E850E0481BFB01E770D6
:10094000FF2721E001C0220FEA95EAF777FF02C0F6
:10095000695F7F4FFB0133E0F595E7953A95E1F745
:10096000F695FE2FEE27F795E795E80FF91FE95268
:10097000FA4F415030F08191DF011197822B8C9317
:10098000F8CF089590E0E7EDF5E091119FEF8FEF3C
:1009900091939193919391938150D0F70895E7EDBE
:1009A000F5E0A0E0B8E000800EBC8111012C1197A9
:1009B000A0FDFDCF0192B9F70DB40895FC0180911F
:1009C000D605882311F13FB7F89482E08093E900BF
:1009D0002091F200822F90E01816190614F481E09D
:1009E00090E0882339F0289844E64093D50540915B
:1009F000F1004083222339F02091F200211103C03D
:100A00002BE62093E8003FBF08958FEF9FEF0895F6
:100A10002FB7F89483E08093E9009091E800892F44
:100A2000807295FF04C09091F20080E4891B2FBF73
:100A300008958091CD0581110DC082E08093C90594
:100A400084E08093CA051092CC051092CB0581E01A
:100A50008093CD0589EC95E00895CF93DF931F92A5
:100A6000CDB7DEB76983DC01ED91FC910280F381A3
:100A7000E02D41E050E0BE016F5F7F4F09950F9080
:100A8000DF91CF91089583E08093E9008091F20097
:100A9000882319F08AE38093E80008950E940805EE
:100AA00090E00895CF93DF931F92CDB7DEB7FC019E
:100AB0008485958597FD08C02FEF3FEF3587248704
:100AC0000F90DF91CF910895CE0101960E94DE0430
:100AD000019719F4898190E0F3CF8FEF9FEFF0CF6A
:100AE0000F931F93CF93DF931F92CDB7DEB78C0187
:100AF000FC018485958597FF0BC0CE0101960E946D
:100B0000DE04019771F4898190E0F801958784876C
:100B1000F801848595850F90DF91CF911F910F91FA
:100B200008958FEF9FEFF1CFFC018485958597FDA8
:100B30000BC09FB7F89482E08093E9008091F200A7
:100B40009FBF90E0019608959FB7F89482E080934C
:100B5000E9008091F2009FBF90E008954091C305A5
:100B60005091C4052091C1053091C2054217530729
:100B7000B4F49091E8009570E1F39091E80092FD53
:100B800019C08093F1008091C3059091C40501962E
:100B90008F739927892B19F48EEF8093E800809149
:100BA000C3059091C40501969093C4058093C30535
:100BB00081E0089580E00895DF92EF92FF920F9315
:100BC0001F93CF93DF93D82E8A01EB017B01E40EB4
:100BD000F51ECE15DF0559F0D7FE12C0FE01849137
:100BE0000E94AE0521968111F4CF0FEF1FEFC801CF
:100BF000DF91CF911F910F91FF90EF90DF900895BB
:100C00008881EECF0F931F93CF93DF931F92CDB7C1
:100C1000DEB782E0898342E450E064E578E080E872
:100C20000E94DC050E941905DC0112960D911C91B1
:100C30000115110589F0D801ED91FC910280F38135
:100C4000E02DBE016F5F7F4FC801099597FD04C07D
:100C5000F80100851185ECCF89810F90DF91CF914C
:100C60001F910F910895615030F02091F100FC0127
:100C700020830196F8CF289884E68093D5050895BF
:100C8000FC010E94D706319728F068517C4F8F4FA6
:100C90009F4FF9CFAB01FC010E94D706641775077F
:100CA0008E079F07C8F308958F929F92AF92BF92CD
:100CB000CF92DF92EF92FF920F931F93CF93DF9328
:100CC0006C017B018A0180911801882309F45AC0C4
:100CD0008091D605882309F455C08091C80580FF0E
:100CE00005C08091E00082608093E000E801B12CB3
:100CF0008AEFA82E93E0892E2AE3922E209711F4F2
:100D0000BB20C9F10E940805811108C0AA94AA203D
:100D1000C9F181E090E00E944006F0CF8C171D06DB
:100D200011F00CF08C2F9FB7F8948092E90020917D
:100D3000E80025FD02C09FBFE1CF282F30E0C21B95
:100D4000D30BF701815020F041914093F100FACF8D
:100D5000E20EF31EBB2021F09092E800B12CEBCF05
:100D60008091E80085FDE7CF9092E800BB24B39422
:100D7000209709F3F3CF5D9884E68093C70510169A
:100D800011063CF081E090E0F6019383828310E04D
:100D900000E0C801DF91CF911F910F91FF90EF907C
:100DA000DF90CF90BF90AF909F908F900895ADEB64
:100DB000B5E02FB7F8947D918D919C9166B52FBFCA
:100DC000A89B05C06F3F18F47F5F8F4F9F4F22E0B5
:100DD000660F771F881F991F2A95D1F70895AF9244
:100DE000BF92CF92DF92EF92FF920F931F93CF9318
:100DF000DF936C017B018B01040F151FEB015E017A
:100E0000AE18BF08C017D10759F06991D601ED910E
:100E1000FC910190F081E02DC6010995892B79F7AD
:100E2000C501DF91CF911F910F91FF90EF90DF905F
:100E3000CF90BF90AF9008954F925F926F927F9244
:100E40008F929F92AF92BF92CF92DF92EF92FF92DA
:100E50000F931F93CF93DF934C015901FC2DC02FAB
:100E6000D0E0CE01880D991D181619060CF067C048
:100E70009B012E0D311D121613060CF060C060345C
:100E800071050CF05CC04115510509F458C0262FBE
:100E90002770F22EDB0177FD179633E0B595A79505
:100EA0003A95E1F73A2F77FF04C0FF2011F03FEFAA
:100EB0003A0F662777276819790997FC02C070E016
:100EC00060E0803891050CF44BC090E89819961BAF
:100ED000A32F032E000CBB0B1A2F10953F3F0CF0D5
:100EE00010E021E08E2D877009F420E0E694E6946E
:100EF000E694E20EAE0DB11D19971CF028E0E22E2B
:100F0000E31AE11A310F20E83203D0011124A80DB1
:100F1000B91DA60FB71F019F600D711D1124460F4B
:100F2000571F0F2D0F2C000C110BF33009F41CC1AF
:100F3000C8F4F13009F4D0C0F23009F47CC0DF917C
:100F4000CF911F910F91FF90EF90DF90CF90BF90C6
:100F5000AF909F908F907F906F905F904F9008958B
:100F6000902FB5CFFA3FB1F1232F2E0DFB3F39F76C
:100F7000321729F3BD0169527A4FD12CC12CC91601
:100F800008F0A4C0FA01EC0DFD1DE491F0E04F0162
:100F9000002E02C0880C991C0A94E2F737FD06C0A7
:100FA000FB018081E82CE0948E218083FF2061F09A
:100FB000373054F45B01F0E8AF0EB11CE92CE0943B
:100FC000F50180818E218083FFEFCF1ADF0A6F5FEA
:100FD0007F4FD5CF232F2E0D321709F4B0CFBD018F
:100FE00069527A4FD12CC12CC91608F069C0FA0198
:100FF000EC0DFD1DE491F0E04F01002E02C0880CC5
:10100000991C0A94E2F737FD04C0FB01808188290E
:101010008083FF2051F0373044F45B01F0E8AF0EDD
:10102000B11CF501808189298083FFEFCF1ADF0A87
:101030006F5F7F4FD9CF6FEF70E00F2C02C0660F4C
:10104000771F0A94E2F760957095772E232F2E0D67
:10105000321709F474CFFD01E952FA4F6F01B12C38
:10106000A12CA91638F5FA01EA0DFB1DE491F0E078
:101070002F01002E02C0440C551C0A94E2F737FDE4
:1010800005C0F6018081862384298083FF2059F0E2
:1010900037304CF44601F0E88F0E911CF40180814A
:1010A000872185298083FFEFAF1ABF0A8FEFC81A07
:1010B000D80AD7CF3F5F4C0F5D1FA058BF4FC8CF96
:1010C0003F5F4C0F5D1FA058BF4F86CF3F5F4C0F57
:1010D0005D1FA058BF4F4CCF6A0D7B1D232F2E0DD7
:1010E000321709F42CCFFD01E952FA4F6F01B12CF0
:1010F000A12CA91688F5FB01EA0DFB1D8490912C0B
:10110000002E02C0880C991C0A94E2F780949094F7
:10111000FA01EA0DFB1D6490712C002E02C0660CD2
:10112000771C0A94E2F737FD05C0F601808188211B
:1011300086298083FF2049F037303CF4F601E058DF
:10114000FF4F8081892187298083FFEFAF1ABF0A73
:101150008FEFC81AD80ACDCF3F5F4C0F5D1F6C0FC1
:101160007D1FA058BF4FBCCFC92ED12CFA01E60F6E
:10117000F71FA952BA4F00E810E00C191D09CC194D
:10118000DD09BE01660F771F41E050E06A010F2CB8
:1011900001C0CC0C0A94EAF7592F2E2D792ECF934B
:1011A000DF93ED01EF96EF9622968590A590FF20B4
:1011B00059F08C9C4001AC9C500137302CF4E880F5
:1011C000B094EB20E928E99233233AF0EC90A09414
:1011D000EA20E828ED920C94EE0811965A9529F72A
:1011E0002A9551F0572D33951124E60FF11DA00FCC
:1011F000B11DC00FD11DD9CFDF91CF9111249FCE4A
:1012000090E00C9440068FB18095807F669B88604B
:101210001C9B846008959091B405982329F49091C3
:10122000B505982381E009F480E00895CF93C82F95
:101230000E940309982F9C2381E09C1380E0CF91AA
:10124000089580E00C94CF0480389105B8F46034A0
:101250007105A0F490E121E061FD24E060FD220F22
:1012600062FD2295687F969FD0011124A80FA95294
:10127000BA4F0C90022A40FF02260C920895EF927A
:10128000FF920F931F93CF93DF937C018B01040F89
:10129000111DEB0177FF02C0D0E0C0E0C8010134AE
:1012A000110514F080E490E0C817D9073CF441E040
:1012B000BE01C7010E9424092196F0CFDF91CF9192
:1012C0001F910F91FF90EF9008958F929F92AF9290
:1012D000BF92CF92DF92EF92FF920F931F93CF9323
:1012E000DF936D3089F0C090B205D090B3056A30BD
:1012F000D1F41092B1051092B00588E0C80ED11C4F
:10130000D092B305C092B20581E090E0DF91CF9119
:101310001F910F91FF90EF90DF90CF90BF90AF9013
:101320009F908F9008950091B0051091B105E5E070
:101330006E9FE0011124CE54DE4F4801F12CF5E000
:10134000E12CFF1629F0CE010196FE01E490EC019C
:10135000B12CA12C4E2D4170B6016A0D7B1DC4012C
:101360000E942409E694FFEFAF1ABF0A88E0A8168E
:10137000B10481F7F394EFEF8E1A9E0AF6E0FF12A4
:10138000DECF0A5F1F4F1093B1050093B005BCCFAD
:10139000CF92EF920F93CF93DF93EC018E816A305F
:1013A00069F49D819C836985860F8E8381E090E03E
:1013B000DF91CF910F91EF90CF9008956A3360F451
:1013C000603308F058C06D32B9F06E3209F455C080
:1013D000613261F49EE311C0613440F06B3508F472
:1013E00045C09FE9960F9A3108F443C098859C5FE9
:1013F0008C81890F8C83DACF90E461E0680F062E30
:10140000000C770BAC810A2E000CBB0BECEAF0E071
:101410002DEA30E08F81813091F50491F901E4905B
:101420004EEA50E09923D1F041E050E08E2D8770D4
:1014300011F450E040E02E2D269526952695240F98
:10144000352F311D029FF001039FF00D11249E9F47
:10145000A0019F9F500D112442555F4F9AEFC92E56
:1014600030E020E0CD010E941C07C0CF9FEB960F1B
:10147000C4CF99EBFCCF94E0FACF9FE3BECF0491A9
:10148000F901E4904EEA50E09923D1F041E050E0B8
:101490008E2D877011F450E040E02E2D2695269574
:1014A0002695240F352F311D029FF001039FF00D6B
:1014B00011249E9FA0019F9F500D112442555F4F04
:1014C0008BEFC82ECDCF0F931F93CF93DF938C015B
:1014D000D0E0C0E0F801EC0FFD1F6491662341F0FD
:1014E00087E29AE00E94C809892B11F02196F2CF79
:1014F000CE01DF91CF911F910F910895089590E053
:1015000080E00895FC0101900020E9F73197AF01D8
:10151000481B590BBC0187E29AE00C94EF068F92AE
:101520009F92AF92BF920F931F93CF93DF93CDB74C
:10153000DEB7A1970FB6F894DEBF0FBECDBF19A2DC
:10154000423008F44AE08E010F5D1F4F842E912C2B
:10155000B12CA12CA50194010E94CF17E62FB9014F
:10156000CA01EA30F4F4E05DD801EE938D01232B3B
:10157000242B252B79F790E080E0109719F0CD010E
:101580000E94820AA1960FB6F894DEBF0FBECDBFAF
:10159000DF91CF911F910F91BF90AF909F908F904F
:1015A0000895E95CE1CFCF93DF93D0E0C0E00097EE
:1015B00019F00E94820AEC018EE491E00E94820AF6
:1015C0008C0F9D1FDF91CF910895CF92DF92EF9204
:1015D000FF92CF93DF936C01092E000CEE08FF08F9
:1015E00097FF1FC06DE287E29AE00E94C809EC01F4
:1015F00066277727CB016C197D098E099F094AE080
:101600000E948F0AC80FD91F8EE491E00E94820ABF
:101610008C0F9D1FDF91CF91FF90EF90DF90CF90C7
:1016200008954AE0C701B6010E948F0AEC01ECCF91
:10163000CF93DF93682F70E090E080E04AE00E9453
:101640008F0AEC018EE491E00E94820A8C0F9D1FAC
:10165000DF91CF9108951F920F920FB60F92112430
:101660008F939F938091E1009091E100937F9093FD
:10167000E10083FF0FC01092E90091E09093EB002E
:101680001092EC0092E39093ED001092D60598E052
:101690009093F00082FF22C093E09093E900909134
:1016A000F200992319F09AE39093E8009091C7050E
:1016B000992341F09091C70591509093C7059111DE
:1016C00001C05D9A9091D505992341F09091D5057F
:1016D00091509093D505911101C0289A84FF18C0AC
:1016E0008091E2008E7E81608093E2008091E10033
:1016F0008F7E8093E1008091C8058E7E806180930B
:10170000C8059F918F910F900FBE0F901F90189555
:1017100080FFF7CF8091E2008E7E80618093E200AF
:101720008091E1008E7E8093E1008091C8058E7EDD
:101730008160E5CF1F920F920FB60F921124CF92C6
:10174000DF92EF92FF920F931F932F933F934F934C
:101750005F936F937F938F939F93AF93BF93EF9319
:10176000FF93CF93DF93CDB7DEB76C97DEBFCDBFCE
:101770001092E9008091E80083FF25C068E0CE0167
:1017800045960E94330682EF8093E8008D8987FF9B
:1017900039C09091E80090FFFCCF982F907609F027
:1017A00034C19E894F89588D2F89F88C911131C091
:1017B000803861F58091C6058093F1001092F100A8
:1017C0008EEF8093E8006C960FB6F894DEBF0FBEE4
:1017D000CDBFDF91CF91FF91EF91BF91AF919F91DD
:1017E0008F917F916F915F914F913F912F911F91B9
:1017F0000F91FF90EF90DF90CF900F900FBE0F9062
:101800001F9018959EEF9093E800C7CF1092F100BB
:10181000D5CF913059F48111D3CF4130510581F6A4
:101820008091C6058D7F8093C605CACF933049F459
:101830008111C6CF4130510519F68091C6058260ED
:10184000F2CF953041F48091E80080FFFCCF206812
:101850002093E300B5CF963009F0A9C00B8D1C8D05
:1018600022E01092E9001092C4051092C305F21212
:101870002EC01092C2051092C1050E9402061F825E
:1018800099E09983FA8291E09E8390EA98879AEF93
:1018900099872091C3053091C405275F3F4F3C8352
:1018A0002B838D831092E9001092C4051092C3051A
:1018B0001093C2050093C10549E050E0BE016F5F7F
:1018C0007F4F80E00E94DC050E94020679CF1093D2
:1018D000C2050093C1050E941905DC0112960D9105
:1018E0001C910115110509F451C1D801ED91FC912C
:1018F0000480F581E02DBE016B5E7F4FC801099524
:10190000009709F03EC1F80100851185EACFF3E0A8
:10191000FF120EC08F89882309F440C0823061F421
:1019200040E867E088EB98E00E94160E811148CFEE
:1019300081E28093EB0047CF813029F440E86BE0EF
:101940008CEA98E0F1CF833099F70E941905DC0109
:101950001296ED90FC908E010F5F1F4F6801E1140D
:10196000F10479F0D701ED91FC910680F781E02D2B
:10197000B801C7010995080F111DF701E084F18432
:10198000EECFD8011C92F60101900020E9F73197C3
:10199000BF016C197D0940E0C601C6CF66E978E059
:1019A000FB01449150E080E80E94DC0509CF9730AC
:1019B00009F4BECF983021F481E08093F10000CF8C
:1019C000993009F0FDCE837009F0B2CFEEE1F1E07D
:1019D00081E031E096E32191222371F08093E900C8
:1019E0003093EB00DF0111972C912093EC00909342
:1019F000ED008F5F873079F78EE78093EA001092D1
:101A0000EA008F898093D605DBCE8B8D9C8D10925A
:101A1000E9001092C4051092C3059093C20580930B
:101A2000C105898D811192C08E899D89913A49F4B1
:101A3000813209F07DCF47E050E061E171E080E064
:101A4000B3CF913209F074CF833269F48F89988DC6
:101A5000B0E0A0E080930D0190930E01A0930F01E0
:101A6000B0931001ADCE803269F48091E80082FF1E
:101A7000FCCF67E081E191E00E9433068BEF809319
:101A8000E8009ECE823209F09BCE8F8980931801A8
:101A9000EEEFFFE7859194918B3F9C4D51F1E0E093
:101AA000F8E08091110190911201A0911301B09181
:101AB0001401803B9440A105B105F1F48091180117
:101AC00080FD1AC0EE3F8AE0F80789F587E797E7BF
:101AD00091838083809160008093C50588E19BE0BD
:101AE0000FB6F894A895809360000FBE90936000A5
:101AF00067CEEEEFFAE0D5CF8081918187379747A7
:101B000009F05ECEA89580916000886180936000A6
:101B10008091C50580936000EE3F2AE0F20789F0CE
:101B20008091FE0A9091FF0A9183808349CE808143
:101B300091818737980751F29093FF0A8093FE0AAC
:101B4000C5CF1092FF0A1092FE0A3ACE0E941905E4
:101B5000DC0112960D911C910115110509F4E8CED6
:101B6000D801ED91FC910190F081E02DBE016B5EFA
:101B70007F4FC8010995811123CEF8010085118599
:101B8000EBCF181619060CF41BCED2CEF1E0FF12E3
:101B9000BECE6AE978E004CF0F920FB68F939F9381
:101BA000EF93FF938091B8058D5F8D3708F08D57C7
:101BB0008093B805E9EBF5E080818E4F80839181B9
:101BC0009F4F918382818F4F828383818F4F838345
:101BD000EDEBF5E080818F5F808381818F4F818382
:101BE00082818F4F828383818F4F83838FB18F60F8
:101BF00066991C9B88278F3681F48091B705981BC6
:101C0000963068F0E0E0F8E087E78083818388E140
:101C100080936000F0936000FFCF9093B705FF9131
:101C2000EF919F918F910FBE0F901895EF92FF92B9
:101C30000F931F93CF93DF93F82E192FE62E042FC7
:101C400081E0860F880F0E94AE0583E00E94AE05FA
:101C5000CF2DD12FEC0EFD2EF11CCE15DF05B9F0E6
:101C600007FF13C0FE0184910E94AE05182F80E08B
:101C70000E94AE05812321968111EFCFDF91CF9194
:101C80001F910F91FF90EF9008958881EDCF81E033
:101C9000F5CFE7EDF9E01382128288EE93E0A0E041
:101CA000B0E084839583A683B78388E291E0918333
:101CB00080838FEF9FEF95878487E1E3FAE01382BB
:101CC000128286E491E091838083E7E2FAE0138256
:101CD00012828AE391E09183808388E0818781E0AA
:101CE000808715821682148287830895CDB7DEB768
:101CF0002997DEBFCDBF789483E084BD83E085BDA6
:101D000081E080936E00E1E8F0E083E08083E0E82A
:101D100081E08083E1E983E08083E0E981E0808302
:101D2000E1EC87E08083E3EC81E08083E0EC82E01B
:101D30008083E2EC81E08083EAE787E0808380684B
:101D400080831092D6051092C6051092C805809126
:101D5000D70081608093D70080EA8093D80089B54E
:101D6000806189BD89B5826089BD09B400FEFDCF5F
:101D700081E090E00E9440068091D8008F7C8061D5
:101D80008093D8008091E000807F8093E000809174
:101D9000E1008E7E8093E1008DE08093E200559A11
:101DA000209A81EC80937C0081EF85B987EE84B91D
:101DB00082E38BB982EF8AB9769A6E9880EF81BB05
:101DC00010BA80E58CBD81E08DBD85E00E940009E0
:101DD0005F9A85E00E9400095C98E2E6F7E0859151
:101DE0008EBD00000DB407FEFDCFEF36C1F75C9A43
:101DF00081E88093640081E0809365000E9421095E
:101E000080E80E9416098823A9F05C9885EA8EBDB7
:101E100000000DB407FEFDCF5C9A2E982F982D98E8
:101E20008091640080628093640081E083BF889524
:101E300013BEFCCF84E00E9416098823B9F12D98C7
:101E400084E80E9416098823A1F02D9A88EC0E944C
:101E500000092F986FEF82E090E00E948B1784EFCB
:101E600091E00E9440062F9A84E80E941609811191
:101E7000FBCF84E10E9416098823A1F02D9A88ECFB
:101E80000E9400092E9860E082E090E00E948B178B
:101E900084EF91E00E9440062E9A84E10E94160988
:101EA0008111FBCF88EC0E940009C4CF2D9A82E0FB
:101EB00090E00E948317882309F468C03E9A3F9AF5
:101EC00081E090E00E94831781FF11C0082F047009
:101ED000702E82FD2E98B1EF8B2E99249A9480E477
:101EE0000E941609882309F454C02E9A2F9A82E37F
:101EF0000E9400090E9403098111F9CF80916400BA
:101F00008E7F8093640080917A00806480937A0051
:101F100080917A0086FDFCCF0091780010917900C5
:101F20000E94D706AB01BC01C801B0E0A0E0DC0113
:101F3000992788278C019D01040F151F261F371F25
:101F4000C901B801209164002160209364006115EB
:101F500071058105910511F00E947A170E94C20453
:101F60001092B3051092B2051092B1051092B0050F
:101F700080916E01882309F4B5C010926E0180E053
:101F800090E0892BA9F30E940000F2CF3E983F9881
:101F900097CF772031F014E08116910411F42E9A36
:101FA0002F9881E00E94CF04082D0770A401F3E070
:101FB00055954795FA95E1F7CA019695982F882788
:101FC0009795879589529A4F70E060E04E3F2FEFCA
:101FD000520781F1DC0130E020E0FB01EE54F94FC3
:101FE0007F016C01F0E8CF0ED11CF701E20FF31F67
:101FF000E491F0E02F01002E02C0440C551C0A941D
:10200000E2F74F3F540739F05496BC905497B428E8
:102010005496BC925497002339F05601A20EB31E79
:10202000F50114891529148B2F5F3F4F1196283520
:102030003105D9F64F5F5F4F80589F4F685A7F4FE9
:10204000603B710509F0C2CF0E9421098FE00E9418
:102050000009FFEF8F1A9F0A09E18016910409F029
:102060003ECF772011F02F9A2D9880E991E00E94C1
:1020700040062D9A81E090E00E94831780FF37CFC1
:102080008AE090E00E9483179FEF980F9E3F08F030
:102090002ECF22E330E03093B1052093B00528E342
:1020A00030E03093B3052093B2050BE010E01A83C3
:1020B0000983682F81E39AE00E94650989819A81EA
:1020C0000E94831709811A810F5F1F4F1A830983AA
:1020D0000131110571F70E94210988EE93E00E94F9
:1020E000400605CF8091B90590916F01182F191BFB
:1020F000103140F41F3009F442CF81E083BF88954E
:1021000013BE3DCF91E090936E0180936F01ECE69A
:10211000F1E0808191810196808391838091B50562
:102120008093B4050E9403098093B5050E94C20400
:102130001092B3051092B2051092B1051092B0053D
:102140008091B605882309F480C0813009F0C0C3AE
:1021500030900C014090000150900101609002010C
:102160007090030100E711E0198708871B822B811B
:10217000321609F43FC4D80158966C9170E090E093
:1021800080E00E941C19A30192010E94D119F8015C
:1021900024853585468557850E9401186B017C0191
:1021A000D80150962D913D914D915C915397189681
:1021B0006D917D918D919C911B970E9401184B010F
:1021C0005C01F80180869186A286B38624893589D0
:1021D00046895789C701B6010E9400186B017C012E
:1021E000D8011C96CD92DD92ED92FC921F97A5012D
:1021F00094016D917D918D919C910E940118F8013F
:102200006083718382839383A701960164817581C2
:10221000868197810E940118D80114966D937D9351
:102220008D939C93179759968D919C915A97181658
:1022300019062CF401975A969C938E935997BB815B
:10224000BF5FBB83055E1F4F92CF8091AF05882390
:1022500009F44AC021E531E03093AC052093AB0589
:102260008091A805882309F446C0A1E5B1E0B093A8
:10227000AE05A093AD0580E10E940B09882361F0B3
:102280008091AA058B3040F49091A90598509093C5
:10229000A9058F5F8093AA0580E80E940B09882317
:1022A00061F08091AA05882341F09091A905985F7B
:1022B0009093A90581508093AA05E091AA05EC307E
:1022C00008F061C0F0E0E859FE4E80E40C94431A37
:1022D0008211CE12DE12EE12081324133E135A138B
:1022E00074138B13A313C11385E591E09093AC0590
:1022F0008093AB05B5CFE5E5F1E0F093AE05E09353
:10230000AD05B9CF0E9416098823B1F02FE632E15E
:1023100043E85AE36091000170910101809102014C
:10232000909103010E9401186093000170930101D4
:10233000809302019093030180E20E941609882392
:1023400011F1C0900001D0900101E0900201F090E5
:10235000030127E137EB41ED58E3C701B6010E94C5
:10236000CC19181684F42FE632E143E85AE3C7018A
:10237000B6010E94001860930001709301018093E0
:1023800002019093030188E00E940B09811106C0AD
:1023900084E00E940B09882309F40DC281E0809338
:1023A000B60510E080910C01181708F004C2809067
:1023B0000B01912CB12CA12CC0900A01D12CF12C35
:1023C000E12CC814D904EA04FB048CF48C189D0891
:1023D000AE08BF0841F00E942B17A50194010E948E
:1023E0009D174B015C01C80CD91CEA1CFB1C212F5A
:1023F00030E03A8329834BE1429FF001439FF00D87
:102400001124E059FE4FD28EC18EC0900901D12C0B
:10241000F12CE12C80900801912CB12CA12C8C1472
:102420009D04AE04BF048CF4C818D908EA08FB0860
:1024300041F00E942B17A70196010E949D176B0186
:102440007C018C0C9D1CAE1CBF1CABE189819A8168
:10245000A89FF001A99FF00D1124E059FE4F808E36
:1024600080E090E0A0E8B2E480839183A283B3830C
:1024700080E090E0A0E0B2E484839583A683B783F4
:102480001086118612861386148615861686178680
:10249000C09007010C2C000CDD08EE08FF088090AE
:1024A0000601082C000C9908AA08BB088C149D048E
:1024B000AE04BF048CF4C818D908EA08FB0841F040
:1024C0000E942B17A70196010E949D176B017C01AA
:1024D0008C0C9D1CAE1CBF1CEBE1A981BA81EA9F4C
:1024E000C001EB9F900D11249C0120593E4F7901B2
:1024F000C501B4010E941C1920E030E048EC52E410
:102500000E947218D70150966D937D938D939C9382
:102510005397C09005010C2C000CDD08EE08FF0855
:1025200080900401082C000C9908AA08BB088C14A0
:102530009D04AE04BF048CF4C818D908EA08FB084F
:1025400041F00E942B17A70196010E949D176B0175
:102550007C018C0C9D1CAE1CBF1C0BE1E981FA8137
:102560000E9FC0010F9F900D11249C0120593E4FDA
:102570003A832983C501B4010E941C1920E030E090
:1025800048EC52E40E947218A981BA8154966D9366
:102590007D938D939C9357971F5F04CF0E941609DC
:1025A000882319F081E08093AF0580E20E9416092C
:1025B000882309F4E8CE1092AF05E5CE0E941609F3
:1025C000882319F081E08093A80580E20E94160913
:1025D000882309F4D8CE1092A805D5CE0E940B0905
:1025E000882339F080910C01883218F48F5F809332
:1025F0000C0180E20E940B09882309F4C4CE80916B
:102600000C01823008F4BFCE815080930C01BBCE08
:102610000E940B09882349F08091080190910901DB
:10262000891718F48F5F8093080180E20E940B09DC
:10263000882309F4A8CE80910801823008F4A3CE43
:102640008150809308019FCE0E940B09882329F0B6
:10265000809109018F5F8093090180E20E940B093C
:10266000882309F490CE8091090190910801981770
:1026700008F089CE81508093090185CE0E940B0914
:10268000882349F080910A0190910B01891718F471
:102690008F5F80930A0180E20E940B09882309F46E
:1026A00072CE80910A01823008F46DCE8150809301
:1026B0000A0169CE0E940B09882329F080910B0141
:1026C0008F5F80930B0180E20E940B09882309F43D
:1026D0005ACE80910B0190910A01981708F053CEC1
:1026E000815080930B014FCE0E940B09882339F053
:1026F0008091060187FF03C08F5F8093060180E20F
:102700000E940B09882309F43ECE80910601815076
:102710008093060138CE0E940B09882329F080910E
:1027200007018F5F8093070180E20E940B098823D5
:1027300009F429CE8091070118160CF024CE81509F
:102740008093070120CE0E940B09882349F08091D5
:1027500004019091050189171CF48F5F8093040197
:1027600080E20E940B09882309F40DCE80910501B7
:1027700018160CF008CE809104018150809304015A
:1027800002CE0E940B09882329F0809105018F5FFA
:102790008093050180E20E940B09882309F4F3CDA0
:1027A000809105019091040198170CF0ECCD8150B7
:1027B00080930501E8CD8091A90510922C0A109212
:1027C0002B0A80932D0A8BE498E00E94630AC09044
:1027D0000001D0900101E0900201F0900301A701F7
:1027E0009601C701B6010E943E1A882309F473C0FE
:1027F00088E591E00E94820A8EE491E00E94820ABC
:102800008AE398E00E94630A8091AB059091AC0541
:102810000E94D30A88E298E00E94630A8091AD0585
:102820009091AE050E94D30A87E198E00E94630A66
:1028300080910C010E94180B84E098E00E94630ACA
:10284000809108010E94180B81EF97E00E94630AB3
:10285000809109010E94180B8AED97E00E94630A9B
:1028600080910A010E94180B83EC97E00E94630A92
:1028700080910B010E94180B8EEA97E00E94630A78
:1028800080910601082E000C990B0E94E50A89E947
:1028900097E00E94630A80910701082E000C990BB3
:1028A0000E94E50A84E897E00E94630A809104018F
:1028B000082E000C990B0E94E50A8FE697E00E9413
:1028C000630A80910501082E000C990B0E94E50A0D
:1028D0000E94210954CB46015701E894B7F82FEF25
:1028E0003FEF4FE75FE7C501B4010E943E1A811137
:1028F0000DC02FEF3FEF4FE75FE7C501B4010E9426
:102900006D1818161CF48CE591E074CF2FEF3FEF93
:102910004FE75FE4C701B6010E94CC1918161CF4FA
:1029200080E691E067CF2FEF3FEF4FE75FECC70105
:10293000B6010E946D1887FDF3CF20E030E0A901B9
:10294000C701B6010E946D1887FF09C06DE287E2DA
:102950009AE00E94C809F7FAF094F7F8F0942EE68E
:1029600032E143E05AE3C701B6010E9401186B014E
:102970007C010E94EB184B015C010E941A199B011B
:10298000AC01C701B6010E9400186B017C014AE04E
:10299000C501B4010E948F0A6EE287E29AE00E94AC
:1029A000C80904E00983198111501983112309F41E
:1029B00023CF20E030E040E251E4C701B6010E949D
:1029C000D1194B015C010E94EB186B01F12CE12C39
:1029D0004AE0C701B6010E948F0AC701B6010E94F2
:1029E0001A199B01AC01C501B4010E9400186B01CA
:1029F0007C01D9CF88E00E940B09811104C084E0DA
:102A00000E940B0981111092B6058091A805909142
:102A1000AF059111D0C181114FC0812C0B810815D8
:102A200009F456CFA885B98559968D919C915A97EE
:102A300018161906CCF558969C90589714966D91D7
:102A40007D918D919C9117970E94E4186B01E88508
:102A5000F98560817181828193810E94E4182B0144
:102A6000F0E4CF16D10428F4492DB601C2010E942A
:102A70008B04092D10E0B8016C0D7D1D61507109AA
:102A80006034710520F4492DC2010E948B04492D48
:102A9000B601C2010E943F09C801840D951D492D50
:102AA000B60101970E943F09839408851985055E48
:102AB0001F4F19870887B2CFB12C1B811B1509F452
:102AC00007CFA885B98559968D919C915A9718166C
:102AD00019061CF55896AC90589714966D917D91F7
:102AE0008D919C9117970E94E4187B01E885F985E8
:102AF00060817181828193810E94E4188B016B0156
:102B0000CA0CD11C0C151D0544F44A2DB701C8018F
:102B10000E943F090F5F1F4FF5CFB39408851985B9
:102B2000055E1F4F19870887C8CF0C810F5F0C8384
:102B300008851985055E1F4F198708871B810C8141
:102B4000101709F4C5CEA885B98559968D919C9129
:102B50005A97181619064CF714966D917D918D9120
:102B60009C9117970E94E4182B017A836983E8856A
:102B7000F98560817181828193810E94E4186B01E3
:102B80001B01A885B98558960C91069510E08824FC
:102B90008394912C801A910A90E080E0801B910B25
:102BA000FC01EE0FFF1FFF83EE83B801640D751D5E
:102BB00041E0C6010E942409B201601B710B41E093
:102BC000C6010E942409C8018C0D9D1D41E0B2017F
:102BD0000E942409C601801B910B41E0B2010E94B2
:102BE0002409712C612C44244394512C60167106E5
:102BF0000CF09BCF97FC0AC0015011092E813F8138
:102C00002E5F3F4F3F832E83820E931E3FEF631A4A
:102C1000730A42E0440E511C840C951C5301A20C13
:102C2000B31C41E0E980FA80E00EF11EB701C50156
:102C30000E9424096101C618D70841E0B701C60106
:102C40000E94240941E0E980FA80E01AF10AB70104
:102C5000C5010E94240941E0B701C6010E94240970
:102C6000E980FA80E60CF71C41E0B7016101C00E73
:102C7000D11EC6010E94240941E0B7017101E01A8A
:102C8000F10AC7010E942409A980BA80A618B708D2
:102C900041E0B501C6010E94240941E0B501C70128
:102CA0000E942409A3CF212C1B81121509F410CEF8
:102CB000A885B98559968D919C915A971816190631
:102CC0000CF071C05896FC90589714966D917D91B8
:102CD0008D919C9117970E94E4184B017D836C8322
:102CE000E885F98560817181828193810E94E41871
:102CF000CB016B010F2D069510E04F2D4160B40103
:102D0000601B710B0E943F0944244394512C401ACC
:102D1000510A712C612C601A710A660C771CF12C17
:102D2000E12CAA24A394B12CE016F106E4F557FC9B
:102D300007C001501109F2E06F0E711C460C571CC0
:102D40002FEFE21AF20A32E0A30EB11C4A0C5B1C10
:102D5000302E330C3394432D8C819D81801B910B3D
:102D60009A838983BC01C7018C0D9D1D0E943F0978
:102D70008C809D808E189F084A2DB401C601800F5B
:102D8000911F0E943F09432D69817A81C6018E19E6
:102D90009F090E943F094A2DB401C601801B910B77
:102DA0000E943F09C1CF239408851985055E1F4FF6
:102DB0001987088779CF811176CF1C82BFCE8F9279
:102DC0009F92AF92BF92CF92DF92EF92FF92CF93FA
:102DD000DF93EC01688179818A819B81611571059E
:102DE0008105910521F464E279ED8BE597E02DE111
:102DF00033EF41E050E00E949D1749015A019B01C9
:102E0000AC01A7EAB1E40E94BC176B017C01ACEEF7
:102E1000B4EFA50194010E94CA17C60ED71EE81E82
:102E2000F91EF7FE06C081E0C81AD108E10880E863
:102E3000F80AC882D982EA82FB82C701B6019F776D
:102E4000DF91CF91FF90EF90DF90CF90BF90AF9048
:102E50009F908F9008958F929F92AF92BF92CF9242
:102E6000DF92EF92FF926091190170911A018091A7
:102E70001B0190911C01611571058105910521F4DB
:102E800064E279ED8BE597E02DE133EF41E050E02E
:102E90000E949D1749015A019B01AC01A7EAB1E4C8
:102EA0000E94BC176B017C01ACEEB4EFA50194014C
:102EB0000E94CA17C60ED71EE81EF91EF7FE06C0EE
:102EC00081E0C81AD108E10880E8F80AC092190127
:102ED000D0921A01E0921B01F0921C01C701B601C9
:102EE0009F77FF90EF90DF90CF90BF90AF909F9033
:102EF0008F9008956093190170931A0180931B01BC
:102F000090931C010895F999FECF92BD81BDF89A66
:102F1000992780B50895262FF999FECF92BD81BDDE
:102F2000F89A019700B4021639F01FBA20BD0FB607
:102F3000F894FA9AF99A0FBE0895052E97FB1EF49D
:102F400000940E94B41757FD07D00E94CF1707FCCA
:102F500003D04EF40C94B4175095409530952195BC
:102F60003F4F4F4F5F4F08959095809570956195B5
:102F70007F4F8F4F9F4F08950E94F117A59F900D8F
:102F8000B49F900DA49F800D911D11240895B7FF4B
:102F90000C94BC170E94BC17821B930B0895A1E2EE
:102FA0001A2EAA1BBB1BFD010DC0AA1FBB1FEE1FC3
:102FB000FF1FA217B307E407F50720F0A21BB30B0E
:102FC000E40BF50B661F771F881F991F1A9469F78A
:102FD00060957095809590959B01AC01BD01CF01E6
:102FE0000895A29FB001B39FC001A39F700D811DE2
:102FF0001124911DB29F700D811D1124911D089502
:103000005058BB27AA270E9418180C9492190E94A6
:10301000841938F00E948B1920F039F49F3F19F47D
:1030200026F40C9481190EF4E095E7FB0C947B19BF
:10303000E92F0E94A31958F3BA1762077307840790
:10304000950720F079F4A6F50C94C5190EF4E095D7
:103050000B2EBA2FA02D0B01B90190010C01CA0152
:10306000A0011124FF27591B99F0593F50F4503EFD
:1030700068F11A16F040A22F232F342F4427585FEF
:10308000F3CF469537952795A795F0405395C9F707
:103090007EF41F16BA0B620B730B840BBAF09150BF
:1030A000A1F0FF0FBB1F661F771F881FC2F70EC05E
:1030B000BA0F621F731F841F48F487957795679531
:1030C000B795F7959E3F08F0B0CF9395880F08F01D
:1030D0009927EE0F9795879508950E94571908F440
:1030E00081E008950E9486180C9492190E948B1911
:1030F00058F00E94841940F029F45F3F29F00C94A5
:103100007B1951110C94C6190C9481190E94A319B2
:1031100068F39923B1F3552391F3951B550BBB2706
:10312000AA2762177307840738F09F5F5F4F220F4B
:10313000331F441FAA1FA9F335D00E2E3AF0E0E842
:1031400032D091505040E695001CCAF72BD0FE2F8C
:1031500029D0660F771F881FBB1F26173707480720
:10316000AB07B0E809F0BB0B802DBF01FF279358D8
:103170005F4F3AF09E3F510578F00C947B190C9408
:10318000C6195F3FE4F3983ED4F38695779567952B
:10319000B795F7959F5FC9F7880F911D969587950D
:1031A00097F90895E1E0660F771F881FBB1F62172C
:1031B00073078407BA0720F0621B730B840BBA0BEA
:1031C000EE1F88F7E09508950E94EB186894B111FE
:1031D0000C94C61908950E94AB1988F09F5798F077
:1031E000B92F9927B751B0F0E1F0660F771F881F0C
:1031F000991F1AF0BA95C9F714C0B13091F00E9426
:10320000C519B1E008950C94C519672F782F882748
:10321000B85F39F0B93FCCF3869577956795B3954C
:10322000D9F73EF490958095709561957F4F8F4FBB
:103230009F4F0895E89409C097FB3EF490958095C0
:10324000709561957F4F8F4F9F4F9923A9F0F92F6C
:1032500096E9BB279395F695879577956795B795EA
:10326000F111F8CFFAF4BB0F11F460FF1BC06F5FD0
:103270007F4F8F4F9F4F16C0882311F096E911C0E2
:10328000772321F09EE8872F762F05C0662371F003
:1032900096E8862F70E060E02AF09A95660F771F17
:1032A000881FDAF7880F9695879597F90895990FF3
:1032B0000008550FAA0BE0E8FEEF16161706E80700
:1032C000F907C0F012161306E407F50798F0621B21
:1032D000730B840B950B39F40A2661F0232B242BF6
:1032E000252B21F408950A2609F4A140A6958FEF15
:1032F000811D811D089597F99F6780E870E060E067
:1033000008959FEF80EC089500240A94161617067E
:1033100018060906089500240A94121613061406C6
:1033200005060895092E0394000C11F4882352F029
:10333000BB0F40F4BF2B11F460FF04C06F5F7F4FE1
:103340008F4F9F4F089557FD9058440F551F59F0C8
:103350005F3F71F04795880F97FB991F61F09F3F82
:1033600079F087950895121613061406551FF2CFAB
:103370004695F1DF08C0161617061806991FF1CFFB
:1033800086957105610508940895E894BB27662722
:103390007727CB0197F908950E94571908F48FEF0A
:1033A00008950E94E4190C9492190E94841938F02F
:1033B0000E948B1920F0952311F00C947B190C942A
:1033C000811911240C94C6190E94A31970F3959FBA
:1033D000C1F3950F50E0551F629FF001729FBB270C
:1033E000F00DB11D639FAA27F00DB11DAA1F649FA8
:1033F0006627B00DA11D661F829F2227B00DA11D5B
:10340000621F739FB00DA11D621F839FA00D611DE0
:10341000221F749F3327A00D611D231F849F600D01
:10342000211D822F762F6A2F11249F5750409AF02A
:10343000F1F088234AF0EE0FFF1FBB1F661F771FB6
:10344000881F91505040A9F79E3F510580F00C9481
:103450007B190C94C6195F3FE4F3983ED4F386952C
:1034600077956795B795F795E7959F5FC1F7FE2B21
:10347000880F911D9695879597F908950E94571981
:10348000880B990B0895EE0FFF1F0590F491E02D26
:063490000994F894FFCF3F
:1034960031082C3D0A0FFB060205505B1EFFFFFF9D
:1034A600FF00E10000000000000100000000C180F4
:1034B60081000000000000002D0554064E0543055E
:1034C60094055205700500000000C809EF067F0A42
:1034D6007E0A000000006509EF067F0A7E0A0D0AD3
:1034E60000596573004E6F006E616E00696E66006E
:0434F6006F76660087
:00000001FF
